{
  "contractName": "ERC721Generator",
  "abi": [
    {
      "constant": true,
      "inputs": [],
      "name": "isOnline",
      "outputs": [
        {
          "name": "",
          "type": "bool"
        }
      ],
      "payable": false,
      "stateMutability": "view",
      "type": "function"
    },
    {
      "constant": true,
      "inputs": [],
      "name": "totalGenerated",
      "outputs": [
        {
          "name": "",
          "type": "uint256"
        }
      ],
      "payable": false,
      "stateMutability": "view",
      "type": "function"
    },
    {
      "constant": true,
      "inputs": [],
      "name": "owner",
      "outputs": [
        {
          "name": "",
          "type": "address"
        }
      ],
      "payable": false,
      "stateMutability": "view",
      "type": "function"
    },
    {
      "constant": true,
      "inputs": [
        {
          "name": "",
          "type": "address"
        },
        {
          "name": "",
          "type": "uint256"
        }
      ],
      "name": "ownedTokens",
      "outputs": [
        {
          "name": "",
          "type": "uint256"
        }
      ],
      "payable": false,
      "stateMutability": "view",
      "type": "function"
    },
    {
      "constant": true,
      "inputs": [
        {
          "name": "",
          "type": "uint256"
        }
      ],
      "name": "tokensArray",
      "outputs": [
        {
          "name": "",
          "type": "address"
        }
      ],
      "payable": false,
      "stateMutability": "view",
      "type": "function"
    },
    {
      "inputs": [],
      "payable": false,
      "stateMutability": "nonpayable",
      "type": "constructor"
    },
    {
      "anonymous": false,
      "inputs": [
        {
          "indexed": true,
          "name": "_sender",
          "type": "address"
        },
        {
          "indexed": true,
          "name": "_newContract",
          "type": "address"
        }
      ],
      "name": "erc721Created",
      "type": "event"
    },
    {
      "constant": false,
      "inputs": [
        {
          "name": "_name",
          "type": "string"
        },
        {
          "name": "_symbol",
          "type": "string"
        },
        {
          "name": "_url",
          "type": "string"
        },
        {
          "name": "_input1",
          "type": "string"
        },
        {
          "name": "_input2",
          "type": "string"
        },
        {
          "name": "_input3",
          "type": "string"
        },
        {
          "name": "_int",
          "type": "uint256"
        }
      ],
      "name": "createERC721",
      "outputs": [
        {
          "name": "_newContract",
          "type": "address"
        }
      ],
      "payable": false,
      "stateMutability": "nonpayable",
      "type": "function"
    },
    {
      "constant": false,
      "inputs": [
        {
          "name": "ofNewOwner",
          "type": "address"
        }
      ],
      "name": "changeOwner",
      "outputs": [],
      "payable": false,
      "stateMutability": "nonpayable",
      "type": "function"
    },
    {
      "constant": true,
      "inputs": [],
      "name": "viewTotal",
      "outputs": [
        {
          "name": "_totalGenerated",
          "type": "uint256"
        }
      ],
      "payable": false,
      "stateMutability": "view",
      "type": "function"
    },
    {
      "constant": true,
      "inputs": [],
      "name": "viewYourTokens",
      "outputs": [
        {
          "name": "_yourTokens",
          "type": "uint256[]"
        }
      ],
      "payable": false,
      "stateMutability": "view",
      "type": "function"
    },
    {
      "constant": true,
      "inputs": [
        {
          "name": "_id",
          "type": "uint256"
        }
      ],
      "name": "viewAddressArray",
      "outputs": [
        {
          "name": "_yourToken",
          "type": "address"
        }
      ],
      "payable": false,
      "stateMutability": "view",
      "type": "function"
    },
    {
      "constant": false,
      "inputs": [],
      "name": "toggleOnlineStatus",
      "outputs": [
        {
          "name": "status",
          "type": "bool"
        }
      ],
      "payable": false,
      "stateMutability": "nonpayable",
      "type": "function"
    }
  ],
  "bytecode": "0x608060405234801561001057600080fd5b5060016000806101000a81548160ff02191690831515021790555033600060016101000a81548173ffffffffffffffffffffffffffffffffffffffff021916908373ffffffffffffffffffffffffffffffffffffffff1602179055506000600381905550613df5806100836000396000f300608060405260043610620000bb576000357c0100000000000000000000000000000000000000000000000000000000900463ffffffff168063664ab18e14620000c05780636efb407814620000f2578063747b41cf14620001625780637b016b5114620001d35780638b35a80c14620003e75780638da5cb5b1462000415578063a6f9dae1146200046f578063b0645dc614620004b5578063bdaa656d14620004e3578063e149f0361462000515578063ec7969081462000579575b600080fd5b348015620000cd57600080fd5b50620000d8620005e9565b604051808215151515815260200191505060405180910390f35b348015620000ff57600080fd5b506200012060048036038101908080359060200190929190505050620005fb565b604051808273ffffffffffffffffffffffffffffffffffffffff1673ffffffffffffffffffffffffffffffffffffffff16815260200191505060405180910390f35b3480156200016f57600080fd5b506200017a6200063f565b6040518080602001828103825283818151815260200191508051906020019060200280838360005b83811015620001bf578082015181840152602081019050620001a2565b505050509050019250505060405180910390f35b348015620001e057600080fd5b50620003a5600480360381019080803590602001908201803590602001908080601f0160208091040260200160405190810160405280939291908181526020018383808284378201915050505050509192919290803590602001908201803590602001908080601f0160208091040260200160405190810160405280939291908181526020018383808284378201915050505050509192919290803590602001908201803590602001908080601f0160208091040260200160405190810160405280939291908181526020018383808284378201915050505050509192919290803590602001908201803590602001908080601f0160208091040260200160405190810160405280939291908181526020018383808284378201915050505050509192919290803590602001908201803590602001908080601f0160208091040260200160405190810160405280939291908181526020018383808284378201915050505050509192919290803590602001908201803590602001908080601f016020809104026020016040519081016040528093929190818152602001838380828437820191505050505050919291929080359060200190929190505050620006d6565b604051808273ffffffffffffffffffffffffffffffffffffffff1673ffffffffffffffffffffffffffffffffffffffff16815260200191505060405180910390f35b348015620003f457600080fd5b50620003ff62000b88565b6040518082815260200191505060405180910390f35b3480156200042257600080fd5b506200042d62000b8e565b604051808273ffffffffffffffffffffffffffffffffffffffff1673ffffffffffffffffffffffffffffffffffffffff16815260200191505060405180910390f35b3480156200047c57600080fd5b50620004b3600480360381019080803573ffffffffffffffffffffffffffffffffffffffff16906020019092919050505062000bb4565b005b348015620004c257600080fd5b50620004cd62000c10565b6040518082815260200191505060405180910390f35b348015620004f057600080fd5b50620004fb62000c1a565b604051808215151515815260200191505060405180910390f35b3480156200052257600080fd5b5062000563600480360381019080803573ffffffffffffffffffffffffffffffffffffffff1690602001909291908035906020019092919050505062000c70565b6040518082815260200191505060405180910390f35b3480156200058657600080fd5b50620005a76004803603810190808035906020019092919050505062000ca1565b604051808273ffffffffffffffffffffffffffffffffffffffff1673ffffffffffffffffffffffffffffffffffffffff16815260200191505060405180910390f35b6000809054906101000a900460ff1681565b60006001828154811015156200060d57fe5b9060005260206000200160009054906101000a900473ffffffffffffffffffffffffffffffffffffffff169050919050565b6060600460003373ffffffffffffffffffffffffffffffffffffffff1673ffffffffffffffffffffffffffffffffffffffff168152602001908152602001600020805480602002602001604051908101604052809291908181526020018280548015620006cc57602002820191906000526020600020905b815481526020019060010190808311620006b7575b5050505050905090565b6000806000809054906101000a900460ff16801515620006f557600080fd5b89898989898989336200070762000d6e565b808060200180602001806020018060200180602001806020018981526020018873ffffffffffffffffffffffffffffffffffffffff1673ffffffffffffffffffffffffffffffffffffffff16815260200187810387528f818151815260200191508051906020019080838360005b838110156200079257808201518184015260208101905062000775565b50505050905090810190601f168015620007c05780820380516001836020036101000a031916815260200191505b5087810386528e818151815260200191508051906020019080838360005b83811015620007fb578082015181840152602081019050620007de565b50505050905090810190601f168015620008295780820380516001836020036101000a031916815260200191505b5087810385528d818151815260200191508051906020019080838360005b838110156200086457808201518184015260208101905062000847565b50505050905090810190601f168015620008925780820380516001836020036101000a031916815260200191505b5087810384528c818151815260200191508051906020019080838360005b83811015620008cd578082015181840152602081019050620008b0565b50505050905090810190601f168015620008fb5780820380516001836020036101000a031916815260200191505b5087810383528b818151815260200191508051906020019080838360005b838110156200093657808201518184015260208101905062000919565b50505050905090810190601f168015620009645780820380516001836020036101000a031916815260200191505b5087810382528a818151815260200191508051906020019080838360005b838110156200099f57808201518184015260208101905062000982565b50505050905090810190601f168015620009cd5780820380516001836020036101000a031916815260200191505b509e505050505050505050505050505050604051809103906000f080158015620009fb573d6000803e3d6000fd5b50915060018290806001815401808255809150509060018203906000526020600020016000909192909190916101000a81548173ffffffffffffffffffffffffffffffffffffffff021916908373ffffffffffffffffffffffffffffffffffffffff1602179055505062000a7c600160035462000ce090919063ffffffff16565b60038190555062000a9a600160035462000cfd90919063ffffffff16565b60026000600354815260200190815260200160002081905550600460003373ffffffffffffffffffffffffffffffffffffffff1673ffffffffffffffffffffffffffffffffffffffff16815260200190815260200160002060035490806001815401808255809150509060018203906000526020600020016000909192909190915055508173ffffffffffffffffffffffffffffffffffffffff163373ffffffffffffffffffffffffffffffffffffffff167fdeb5db332601b3fabd9f14905d539b617760323cfdbdfdde436f39b355fd247560405160405180910390a38192505050979650505050505050565b60035481565b600060019054906101000a900473ffffffffffffffffffffffffffffffffffffffff1681565b62000bbe62000d17565b80151562000bcb57600080fd5b81600060016101000a81548173ffffffffffffffffffffffffffffffffffffffff021916908373ffffffffffffffffffffffffffffffffffffffff1602179055505050565b6000600354905090565b600062000c2662000d17565b80151562000c3357600080fd5b6000809054906101000a900460ff16156000806101000a81548160ff0219169083151502179055506000809054906101000a900460ff1691505090565b60046020528160005260406000208181548110151562000c8c57fe5b90600052602060002001600091509150505481565b60018181548110151562000cb157fe5b906000526020600020016000915054906101000a900473ffffffffffffffffffffffffffffffffffffffff1681565b6000818301905082811015151562000cf457fe5b80905092915050565b600082821115151562000d0c57fe5b818303905092915050565b60008060019054906101000a900473ffffffffffffffffffffffffffffffffffffffff1673ffffffffffffffffffffffffffffffffffffffff163373ffffffffffffffffffffffffffffffffffffffff1614905090565b60405161304a8062000d8083390190560060806040523480156200001157600080fd5b506040516200304a3803806200304a833981018060405281019080805182019291906020018051820192919060200180518201929190602001805182019291906020018051820192919060200180518201929190602001805190602001909291908051906020019092919050505060008860049080519060200190620000999291906200066e565b508760059080519060200190620000b29291906200066e565b5081600760006101000a81548173ffffffffffffffffffffffffffffffffffffffff021916908373ffffffffffffffffffffffffffffffffffffffff16021790555060016006819055506001905062000120828289898989896200012f640100000000026401000000009004565b5050505050505050506200071d565b600654600b805490501015156200014557600080fd5b620001658787620002746401000000000262002701176401000000009004565b600b80549050600c600088815260200190815260200160002081905550600b869080600181540180825580915050906001820390600052602060002001600090919290919091505550620001c9868662000336640100000000026401000000009004565b83600860008881526020019081526020016000206000019080519060200190620001f59291906200066e565b5082600860008881526020019081526020016000206001019080519060200190620002229291906200066e565b50816008600088815260200190815260200160002060020190805190602001906200024f9291906200066e565b5080600860008881526020019081526020016000206003018190555050505050505050565b600073ffffffffffffffffffffffffffffffffffffffff168273ffffffffffffffffffffffffffffffffffffffff1614151515620002b157600080fd5b620002cc82826200038a640100000000026401000000009004565b8173ffffffffffffffffffffffffffffffffffffffff16600073ffffffffffffffffffffffffffffffffffffffff167fddf252ad1be2c89b69c2b068fc378daa952ba7f163c4a11628f55a4df523b3ef836040518082815260200191505060405180910390a35050565b620003508262000477640100000000026401000000009004565b15156200035c57600080fd5b80600d60008481526020019081526020016000209080519060200190620003859291906200066e565b505050565b6000620003ac8383620004e864010000000002620025a9176401000000009004565b600960008473ffffffffffffffffffffffffffffffffffffffff1673ffffffffffffffffffffffffffffffffffffffff168152602001908152602001600020805490509050600960008473ffffffffffffffffffffffffffffffffffffffff1673ffffffffffffffffffffffffffffffffffffffff16815260200190815260200160002082908060018154018082558091505090600182039060005260206000200160009091929091909150555080600a600084815260200190815260200160002081905550505050565b60008060008084815260200190815260200160002060009054906101000a900473ffffffffffffffffffffffffffffffffffffffff169050600073ffffffffffffffffffffffffffffffffffffffff168173ffffffffffffffffffffffffffffffffffffffff161415915050919050565b600073ffffffffffffffffffffffffffffffffffffffff1660008083815260200190815260200160002060009054906101000a900473ffffffffffffffffffffffffffffffffffffffff1673ffffffffffffffffffffffffffffffffffffffff161415156200055657600080fd5b8160008083815260200190815260200160002060006101000a81548173ffffffffffffffffffffffffffffffffffffffff021916908373ffffffffffffffffffffffffffffffffffffffff1602179055506200060a6001600260008573ffffffffffffffffffffffffffffffffffffffff1673ffffffffffffffffffffffffffffffffffffffff16815260200190815260200160002054620006516401000000000262002804179091906401000000009004565b600260008473ffffffffffffffffffffffffffffffffffffffff1673ffffffffffffffffffffffffffffffffffffffff168152602001908152602001600020819055505050565b600081830190508281101515156200066557fe5b80905092915050565b828054600181600116156101000203166002900490600052602060002090601f016020900481019282601f10620006b157805160ff1916838001178555620006e2565b82800160010185558215620006e2579182015b82811115620006e1578251825591602001919060010190620006c4565b5b509050620006f19190620006f5565b5090565b6200071a91905b8082111562000716576000816000905550600101620006fc565b5090565b90565b61291d806200072d6000396000f300608060405260043610610128576000357c0100000000000000000000000000000000000000000000000000000000900463ffffffff16806306fdde031461012d578063081812fc146101bd578063095ea7b31461022a57806318160ddd1461027757806323b872dd146102a25780632f745c591461030f57806342842e0e146103705780634f558e79146103dd5780634f6ccce7146104225780635a7a4e29146104635780636352211e146105e857806370a0823114610655578063864905ba146106ac5780638da5cb5b1461083157806395d89b4114610888578063a22cb46514610918578063ad106d3f14610967578063b88d4fde14610ad6578063b91bdb3b14610b89578063c87b56dd14610bb4578063e985e9c514610c5a578063f7ea7a3d14610cd5575b600080fd5b34801561013957600080fd5b50610142610d16565b6040518080602001828103825283818151815260200191508051906020019080838360005b83811015610182578082015181840152602081019050610167565b50505050905090810190601f1680156101af5780820380516001836020036101000a031916815260200191505b509250505060405180910390f35b3480156101c957600080fd5b506101e860048036038101908080359060200190929190505050610db8565b604051808273ffffffffffffffffffffffffffffffffffffffff1673ffffffffffffffffffffffffffffffffffffffff16815260200191505060405180910390f35b34801561023657600080fd5b50610275600480360381019080803573ffffffffffffffffffffffffffffffffffffffff16906020019092919080359060200190929190505050610df5565b005b34801561028357600080fd5b5061028c610fbb565b6040518082815260200191505060405180910390f35b3480156102ae57600080fd5b5061030d600480360381019080803573ffffffffffffffffffffffffffffffffffffffff169060200190929190803573ffffffffffffffffffffffffffffffffffffffff16906020019092919080359060200190929190505050610fc5565b005b34801561031b57600080fd5b5061035a600480360381019080803573ffffffffffffffffffffffffffffffffffffffff169060200190929190803590602001909291905050506110dc565b6040518082815260200191505060405180910390f35b34801561037c57600080fd5b506103db600480360381019080803573ffffffffffffffffffffffffffffffffffffffff169060200190929190803573ffffffffffffffffffffffffffffffffffffffff16906020019092919080359060200190929190505050611153565b005b3480156103e957600080fd5b506104086004803603810190808035906020019092919050505061118b565b604051808215151515815260200191505060405180910390f35b34801561042e57600080fd5b5061044d600480360381019080803590602001909291905050506111fc565b6040518082815260200191505060405180910390f35b34801561046f57600080fd5b5061048e60048036038101908080359060200190929190505050611234565b60405180806020018060200180602001858152602001848103845288818151815260200191508051906020019080838360005b838110156104dc5780820151818401526020810190506104c1565b50505050905090810190601f1680156105095780820380516001836020036101000a031916815260200191505b50848103835287818151815260200191508051906020019080838360005b83811015610542578082015181840152602081019050610527565b50505050905090810190601f16801561056f5780820380516001836020036101000a031916815260200191505b50848103825286818151815260200191508051906020019080838360005b838110156105a857808201518184015260208101905061058d565b50505050905090810190601f1680156105d55780820380516001836020036101000a031916815260200191505b5097505050505050505060405180910390f35b3480156105f457600080fd5b506106136004803603810190808035906020019092919050505061142c565b604051808273ffffffffffffffffffffffffffffffffffffffff1673ffffffffffffffffffffffffffffffffffffffff16815260200191505060405180910390f35b34801561066157600080fd5b50610696600480360381019080803573ffffffffffffffffffffffffffffffffffffffff1690602001909291905050506114a9565b6040518082815260200191505060405180910390f35b3480156106b857600080fd5b506106d76004803603810190808035906020019092919050505061152d565b60405180806020018060200180602001858152602001848103845288818151815260200191508051906020019080838360005b8381101561072557808201518184015260208101905061070a565b50505050905090810190601f1680156107525780820380516001836020036101000a031916815260200191505b50848103835287818151815260200191508051906020019080838360005b8381101561078b578082015181840152602081019050610770565b50505050905090810190601f1680156107b85780820380516001836020036101000a031916815260200191505b50848103825286818151815260200191508051906020019080838360005b838110156107f15780820151818401526020810190506107d6565b50505050905090810190601f16801561081e5780820380516001836020036101000a031916815260200191505b5097505050505050505060405180910390f35b34801561083d57600080fd5b50610846611784565b604051808273ffffffffffffffffffffffffffffffffffffffff1673ffffffffffffffffffffffffffffffffffffffff16815260200191505060405180910390f35b34801561089457600080fd5b5061089d6117aa565b6040518080602001828103825283818151815260200191508051906020019080838360005b838110156108dd5780820151818401526020810190506108c2565b50505050905090810190601f16801561090a5780820380516001836020036101000a031916815260200191505b509250505060405180910390f35b34801561092457600080fd5b50610965600480360381019080803573ffffffffffffffffffffffffffffffffffffffff16906020019092919080351515906020019092919050505061184c565b005b34801561097357600080fd5b50610ad4600480360381019080803573ffffffffffffffffffffffffffffffffffffffff16906020019092919080359060200190929190803590602001908201803590602001908080601f0160208091040260200160405190810160405280939291908181526020018383808284378201915050505050509192919290803590602001908201803590602001908080601f0160208091040260200160405190810160405280939291908181526020018383808284378201915050505050509192919290803590602001908201803590602001908080601f0160208091040260200160405190810160405280939291908181526020018383808284378201915050505050509192919290803590602001908201803590602001908080601f016020809104026020016040519081016040528093929190818152602001838380828437820191505050505050919291929080359060200190929190505050611988565b005b348015610ae257600080fd5b50610b87600480360381019080803573ffffffffffffffffffffffffffffffffffffffff169060200190929190803573ffffffffffffffffffffffffffffffffffffffff16906020019092919080359060200190929190803590602001908201803590602001908080601f01602080910402602001604051908101604052809392919081815260200183838082843782019150505050505091929192905050506119fc565b005b348015610b9557600080fd5b50610b9e611a3b565b6040518082815260200191505060405180910390f35b348015610bc057600080fd5b50610bdf60048036038101908080359060200190929190505050611a48565b6040518080602001828103825283818151815260200191508051906020019080838360005b83811015610c1f578082015181840152602081019050610c04565b50505050905090810190601f168015610c4c5780820380516001836020036101000a031916815260200191505b509250505060405180910390f35b348015610c6657600080fd5b50610cbb600480360381019080803573ffffffffffffffffffffffffffffffffffffffff169060200190929190803573ffffffffffffffffffffffffffffffffffffffff169060200190929190505050611b11565b604051808215151515815260200191505060405180910390f35b348015610ce157600080fd5b50610d0060048036038101908080359060200190929190505050611ba5565b6040518082815260200191505060405180910390f35b606060048054600181600116156101000203166002900480601f016020809104026020016040519081016040528092919081815260200182805460018160011615610100020316600290048015610dae5780601f10610d8357610100808354040283529160200191610dae565b820191906000526020600020905b815481529060010190602001808311610d9157829003601f168201915b5050505050905090565b60006001600083815260200190815260200160002060009054906101000a900473ffffffffffffffffffffffffffffffffffffffff169050919050565b6000610e008261142c565b90508073ffffffffffffffffffffffffffffffffffffffff168373ffffffffffffffffffffffffffffffffffffffff1614151515610e3d57600080fd5b8073ffffffffffffffffffffffffffffffffffffffff163373ffffffffffffffffffffffffffffffffffffffff161480610e7d5750610e7c8133611b11565b5b1515610e8857600080fd5b600073ffffffffffffffffffffffffffffffffffffffff16610ea983610db8565b73ffffffffffffffffffffffffffffffffffffffff16141580610ef95750600073ffffffffffffffffffffffffffffffffffffffff168373ffffffffffffffffffffffffffffffffffffffff1614155b15610fb657826001600084815260200190815260200160002060006101000a81548173ffffffffffffffffffffffffffffffffffffffff021916908373ffffffffffffffffffffffffffffffffffffffff1602179055508273ffffffffffffffffffffffffffffffffffffffff168173ffffffffffffffffffffffffffffffffffffffff167f8c5be1e5ebec7d5bd14f71427d1e84f3dd0314c0f7b2291e5b200ac8c7c3b925846040518082815260200191505060405180910390a35b505050565b6000600654905090565b80610fd03382611c70565b1515610fdb57600080fd5b600073ffffffffffffffffffffffffffffffffffffffff168473ffffffffffffffffffffffffffffffffffffffff161415151561101757600080fd5b600073ffffffffffffffffffffffffffffffffffffffff168373ffffffffffffffffffffffffffffffffffffffff161415151561105357600080fd5b61105d8483611d05565b6110678483611e6e565b6110718383612086565b8273ffffffffffffffffffffffffffffffffffffffff168473ffffffffffffffffffffffffffffffffffffffff167fddf252ad1be2c89b69c2b068fc378daa952ba7f163c4a11628f55a4df523b3ef846040518082815260200191505060405180910390a350505050565b60006110e7836114a9565b821015156110f457600080fd5b600960008473ffffffffffffffffffffffffffffffffffffffff1673ffffffffffffffffffffffffffffffffffffffff1681526020019081526020016000208281548110151561114057fe5b9060005260206000200154905092915050565b8061115e3382611c70565b151561116957600080fd5b61118584848460206040519081016040528060008152506119fc565b50505050565b60008060008084815260200190815260200160002060009054906101000a900473ffffffffffffffffffffffffffffffffffffffff169050600073ffffffffffffffffffffffffffffffffffffffff168173ffffffffffffffffffffffffffffffffffffffff161415915050919050565b6000611206611a3b565b8210151561121357600080fd5b600b8281548110151561122257fe5b90600052602060002001549050919050565b6008602052806000526040600020600091509050806000018054600181600116156101000203166002900480601f0160208091040260200160405190810160405280929190818152602001828054600181600116156101000203166002900480156112e05780601f106112b5576101008083540402835291602001916112e0565b820191906000526020600020905b8154815290600101906020018083116112c357829003601f168201915b505050505090806001018054600181600116156101000203166002900480601f01602080910402602001604051908101604052809291908181526020018280546001816001161561010002031660029004801561137e5780601f106113535761010080835404028352916020019161137e565b820191906000526020600020905b81548152906001019060200180831161136157829003601f168201915b505050505090806002018054600181600116156101000203166002900480601f01602080910402602001604051908101604052809291908181526020018280546001816001161561010002031660029004801561141c5780601f106113f15761010080835404028352916020019161141c565b820191906000526020600020905b8154815290600101906020018083116113ff57829003601f168201915b5050505050908060030154905084565b60008060008084815260200190815260200160002060009054906101000a900473ffffffffffffffffffffffffffffffffffffffff169050600073ffffffffffffffffffffffffffffffffffffffff168173ffffffffffffffffffffffffffffffffffffffff16141515156114a057600080fd5b80915050919050565b60008073ffffffffffffffffffffffffffffffffffffffff168273ffffffffffffffffffffffffffffffffffffffff16141515156114e657600080fd5b600260008373ffffffffffffffffffffffffffffffffffffffff1673ffffffffffffffffffffffffffffffffffffffff168152602001908152602001600020549050919050565b6060806060600061153d8561118b565b151561154857600080fd5b6008600086815260200190815260200160002060000160086000878152602001908152602001600020600101600860008881526020019081526020016000206002016008600089815260200190815260200160002060030154838054600181600116156101000203166002900480601f0160208091040260200160405190810160405280929190818152602001828054600181600116156101000203166002900480156116365780601f1061160b57610100808354040283529160200191611636565b820191906000526020600020905b81548152906001019060200180831161161957829003601f168201915b50505050509350828054600181600116156101000203166002900480601f0160208091040260200160405190810160405280929190818152602001828054600181600116156101000203166002900480156116d25780601f106116a7576101008083540402835291602001916116d2565b820191906000526020600020905b8154815290600101906020018083116116b557829003601f168201915b50505050509250818054600181600116156101000203166002900480601f01602080910402602001604051908101604052809291908181526020018280546001816001161561010002031660029004801561176e5780601f106117435761010080835404028352916020019161176e565b820191906000526020600020905b81548152906001019060200180831161175157829003601f168201915b5050505050915093509350935093509193509193565b600760009054906101000a900473ffffffffffffffffffffffffffffffffffffffff1681565b606060058054600181600116156101000203166002900480601f0160208091040260200160405190810160405280929190818152602001828054600181600116156101000203166002900480156118425780601f1061181757610100808354040283529160200191611842565b820191906000526020600020905b81548152906001019060200180831161182557829003601f168201915b5050505050905090565b3373ffffffffffffffffffffffffffffffffffffffff168273ffffffffffffffffffffffffffffffffffffffff161415151561188757600080fd5b80600360003373ffffffffffffffffffffffffffffffffffffffff1673ffffffffffffffffffffffffffffffffffffffff16815260200190815260200160002060008473ffffffffffffffffffffffffffffffffffffffff1673ffffffffffffffffffffffffffffffffffffffff16815260200190815260200160002060006101000a81548160ff0219169083151502179055508173ffffffffffffffffffffffffffffffffffffffff163373ffffffffffffffffffffffffffffffffffffffff167f17307eab39ab6107e8899845ad3d59bd9653f200f220920489ca2b5937696c3183604051808215151515815260200191505060405180910390a35050565b600760009054906101000a900473ffffffffffffffffffffffffffffffffffffffff1673ffffffffffffffffffffffffffffffffffffffff163373ffffffffffffffffffffffffffffffffffffffff161415156119e457600080fd5b6119f38787878787878761215d565b50505050505050565b81611a073382611c70565b1515611a1257600080fd5b611a1d858585610fc5565b611a2985858585612274565b1515611a3457600080fd5b5050505050565b6000600b80549050905090565b6060611a538261118b565b1515611a5e57600080fd5b600d60008381526020019081526020016000208054600181600116156101000203166002900480601f016020809104026020016040519081016040528092919081815260200182805460018160011615610100020316600290048015611b055780601f10611ada57610100808354040283529160200191611b05565b820191906000526020600020905b815481529060010190602001808311611ae857829003601f168201915b50505050509050919050565b6000600360008473ffffffffffffffffffffffffffffffffffffffff1673ffffffffffffffffffffffffffffffffffffffff16815260200190815260200160002060008373ffffffffffffffffffffffffffffffffffffffff1673ffffffffffffffffffffffffffffffffffffffff16815260200190815260200160002060009054906101000a900460ff16905092915050565b6000600760009054906101000a900473ffffffffffffffffffffffffffffffffffffffff1673ffffffffffffffffffffffffffffffffffffffff163373ffffffffffffffffffffffffffffffffffffffff16141515611c0357600080fd5b600760009054906101000a900473ffffffffffffffffffffffffffffffffffffffff1673ffffffffffffffffffffffffffffffffffffffff163373ffffffffffffffffffffffffffffffffffffffff16141515611c5f57600080fd5b816006819055506006549050919050565b600080611c7c8361142c565b90508073ffffffffffffffffffffffffffffffffffffffff168473ffffffffffffffffffffffffffffffffffffffff161480611ceb57508373ffffffffffffffffffffffffffffffffffffffff16611cd384610db8565b73ffffffffffffffffffffffffffffffffffffffff16145b80611cfc5750611cfb8185611b11565b5b91505092915050565b8173ffffffffffffffffffffffffffffffffffffffff16611d258261142c565b73ffffffffffffffffffffffffffffffffffffffff16141515611d4757600080fd5b600073ffffffffffffffffffffffffffffffffffffffff166001600083815260200190815260200160002060009054906101000a900473ffffffffffffffffffffffffffffffffffffffff1673ffffffffffffffffffffffffffffffffffffffff16141515611e6a5760006001600083815260200190815260200160002060006101000a81548173ffffffffffffffffffffffffffffffffffffffff021916908373ffffffffffffffffffffffffffffffffffffffff160217905550600073ffffffffffffffffffffffffffffffffffffffff168273ffffffffffffffffffffffffffffffffffffffff167f8c5be1e5ebec7d5bd14f71427d1e84f3dd0314c0f7b2291e5b200ac8c7c3b925836040518082815260200191505060405180910390a35b5050565b6000806000611e7d8585612462565b600a6000858152602001908152602001600020549250611ee96001600960008873ffffffffffffffffffffffffffffffffffffffff1673ffffffffffffffffffffffffffffffffffffffff1681526020019081526020016000208054905061259090919063ffffffff16565b9150600960008673ffffffffffffffffffffffffffffffffffffffff1673ffffffffffffffffffffffffffffffffffffffff16815260200190815260200160002082815481101515611f3757fe5b9060005260206000200154905080600960008773ffffffffffffffffffffffffffffffffffffffff1673ffffffffffffffffffffffffffffffffffffffff16815260200190815260200160002084815481101515611f9157fe5b90600052602060002001819055506000600960008773ffffffffffffffffffffffffffffffffffffffff1673ffffffffffffffffffffffffffffffffffffffff16815260200190815260200160002083815481101515611fed57fe5b9060005260206000200181905550600960008673ffffffffffffffffffffffffffffffffffffffff1673ffffffffffffffffffffffffffffffffffffffff16815260200190815260200160002080548091906001900361204d9190612820565b506000600a60008681526020019081526020016000208190555082600a6000838152602001908152602001600020819055505050505050565b600061209283836125a9565b600960008473ffffffffffffffffffffffffffffffffffffffff1673ffffffffffffffffffffffffffffffffffffffff168152602001908152602001600020805490509050600960008473ffffffffffffffffffffffffffffffffffffffff1673ffffffffffffffffffffffffffffffffffffffff16815260200190815260200160002082908060018154018082558091505090600182039060005260206000200160009091929091909150555080600a600084815260200190815260200160002081905550505050565b600654600b8054905010151561217257600080fd5b61217c8787612701565b600b80549050600c600088815260200190815260200160002081905550600b8690806001815401808255809150509060018203906000526020600020016000909192909190915055506121cf86866127b1565b836008600088815260200190815260200160002060000190805190602001906121f992919061284c565b508260086000888152602001908152602001600020600101908051906020019061222492919061284c565b508160086000888152602001908152602001600020600201908051906020019061224f92919061284c565b5080600860008881526020019081526020016000206003018190555050505050505050565b6000806122968573ffffffffffffffffffffffffffffffffffffffff166127f1565b15156122a55760019150612459565b8473ffffffffffffffffffffffffffffffffffffffff1663f0b9e5ba8786866040518463ffffffff167c0100000000000000000000000000000000000000000000000000000000028152600401808473ffffffffffffffffffffffffffffffffffffffff1673ffffffffffffffffffffffffffffffffffffffff16815260200183815260200180602001828103825283818151815260200191508051906020019080838360005b8381101561236757808201518184015260208101905061234c565b50505050905090810190601f1680156123945780820380516001836020036101000a031916815260200191505b50945050505050602060405180830381600087803b1580156123b557600080fd5b505af11580156123c9573d6000803e3d6000fd5b505050506040513d60208110156123df57600080fd5b8101908080519060200190929190505050905063f0b9e5ba7c0100000000000000000000000000000000000000000000000000000000027bffffffffffffffffffffffffffffffffffffffffffffffffffffffff1916817bffffffffffffffffffffffffffffffffffffffffffffffffffffffff19161491505b50949350505050565b8173ffffffffffffffffffffffffffffffffffffffff166124828261142c565b73ffffffffffffffffffffffffffffffffffffffff161415156124a457600080fd5b6124f76001600260008573ffffffffffffffffffffffffffffffffffffffff1673ffffffffffffffffffffffffffffffffffffffff1681526020019081526020016000205461259090919063ffffffff16565b600260008473ffffffffffffffffffffffffffffffffffffffff1673ffffffffffffffffffffffffffffffffffffffff16815260200190815260200160002081905550600080600083815260200190815260200160002060006101000a81548173ffffffffffffffffffffffffffffffffffffffff021916908373ffffffffffffffffffffffffffffffffffffffff1602179055505050565b600082821115151561259e57fe5b818303905092915050565b600073ffffffffffffffffffffffffffffffffffffffff1660008083815260200190815260200160002060009054906101000a900473ffffffffffffffffffffffffffffffffffffffff1673ffffffffffffffffffffffffffffffffffffffff1614151561261657600080fd5b8160008083815260200190815260200160002060006101000a81548173ffffffffffffffffffffffffffffffffffffffff021916908373ffffffffffffffffffffffffffffffffffffffff1602179055506126ba6001600260008573ffffffffffffffffffffffffffffffffffffffff1673ffffffffffffffffffffffffffffffffffffffff1681526020019081526020016000205461280490919063ffffffff16565b600260008473ffffffffffffffffffffffffffffffffffffffff1673ffffffffffffffffffffffffffffffffffffffff168152602001908152602001600020819055505050565b600073ffffffffffffffffffffffffffffffffffffffff168273ffffffffffffffffffffffffffffffffffffffff161415151561273d57600080fd5b6127478282612086565b8173ffffffffffffffffffffffffffffffffffffffff16600073ffffffffffffffffffffffffffffffffffffffff167fddf252ad1be2c89b69c2b068fc378daa952ba7f163c4a11628f55a4df523b3ef836040518082815260200191505060405180910390a35050565b6127ba8261118b565b15156127c557600080fd5b80600d600084815260200190815260200160002090805190602001906127ec92919061284c565b505050565b600080823b905060008111915050919050565b6000818301905082811015151561281757fe5b80905092915050565b8154818355818111156128475781836000526020600020918201910161284691906128cc565b5b505050565b828054600181600116156101000203166002900490600052602060002090601f016020900481019282601f1061288d57805160ff19168380011785556128bb565b828001600101855582156128bb579182015b828111156128ba57825182559160200191906001019061289f565b5b5090506128c891906128cc565b5090565b6128ee91905b808211156128ea5760008160009055506001016128d2565b5090565b905600a165627a7a72305820da0781ccafd2af861159c16304c64599d80c908fb6458aadfdb1d1bc7f961b1d0029a165627a7a72305820c065bdafb46a2f5db9f7dcf0d5d29cff365880b5efe33abfb83e13187fb65ffa0029",
  "source": "pragma solidity ^0.4.24;\r\n\r\n//import zeppelin standard for erc721\r\nimport \"./ERC721Token.sol\";\r\n\r\n\r\n    \r\n\r\n/**\r\n * @title Full ERC721 Token Generator\r\n * This smart contract allows you to create an ERC721 of your own, very easily! \r\n * How it works\r\n * - Call function createERC721 and pass in the metadata for your token\r\n * - It can take multiple params\r\n * - You can then call the public viewYourTokens with your address to see the ID's of your new ERC721s.\r\n * - Then you can call viewAddressArray with your token ID to see the address of your new token.\r\n *\r\n *\r\n *\r\n *\r\n *\r\n * @dev see https://github.com/ethereum/EIPs/blob/master/EIPS/eip-721.md\r\n */\r\n/// @title Desing by contract (Hoare logic)\r\n/// @author Melonport AG <team@melonport.com>\r\n/// @notice Gives deriving contracts design by contract modifiers\r\n\r\n\r\ncontract ERC721Generator{\r\n    \r\n   /**\r\n   * @dev Checks for a pre-condition\r\n   * @param condition bool the condition you want to be tested\r\n   */\r\n // PRE, POST CONDITIONS\r\n modifier pre_cond(bool condition) {\r\n        require(condition);\r\n        _;\r\n    }\r\n   /**\r\n   * @dev Checks for a post-condition\r\n   * @param condition bool the condition you want to be tested\r\n   */\r\n    modifier post_cond(bool condition) {\r\n        _;\r\n        assert(condition);\r\n    }\r\n\r\n\r\n\r\n\r\n    bool public isOnline;\r\n    using SafeMath for uint256;\r\n    using SafeMath for uint;\r\n    address public owner;\r\n    //public array of all tokens made by this contract\r\n    address[] public tokensArray;\r\n    //takes an id, returns the position in the tokensArray for that token\r\n    mapping (uint256 => uint256 ) internal posInTokensArray;\r\n    //tracking total contracts created\r\n    uint256 public totalGenerated;\r\n    //takes an address and returns an array of the token IDs in which they own\r\n    mapping(address => uint256[]) public ownedTokens;\r\n    \r\n    //event\r\n    \r\n    event erc721Created(address indexed _sender, address indexed _newContract);\r\n\r\n    \r\n     /**\r\n   * @dev sets totalGenerated to 0, sets owner, sets isOnline to true\r\n   *  \r\n   */\r\n    constructor() public{\r\n        isOnline = true;\r\n        owner = msg.sender;\r\n        totalGenerated = 0;\r\n    }\r\n    \r\n    \r\n      /**\r\n   *\r\n   * @dev creates a new erc721 contracts\r\n   * @param _name name of contract\r\n   * @param _symbol symbol for contract\r\n   * @param _url ipfs or any other url, image preferred \r\n   * @param _input1 any user input\r\n   * @param _input2 any user input\r\n   * @param _input3 any user input\r\n   * @param  _int any user input\r\n   * @return address of the newly created contract\r\n   */\r\n    function createERC721(string _name, string _symbol, string _url, string _input1, string _input2, string _input3,uint256 _int) \r\n    public  pre_cond(isOnline)\r\n    returns(address _newContract)\r\n    {\r\n        ERC721Token erc721 = new ERC721Token(_name, _symbol, _url, _input1, _input2, _input3, _int, msg.sender);\r\n        tokensArray.push(erc721); \r\n        totalGenerated = totalGenerated.add(1);\r\n        posInTokensArray[totalGenerated] = totalGenerated.sub(1);\r\n        ownedTokens[msg.sender].push(totalGenerated);\r\n        emit erc721Created(msg.sender, erc721);\r\n        return erc721;\r\n        \r\n    }\r\n      /**\r\n   * @dev changes ownership, must be current owner\r\n   * @param ofNewOwner address, the new owners address \r\n   */\r\n    function changeOwner(address ofNewOwner) public pre_cond(isOwner()) { owner = ofNewOwner; }\r\n\r\n   \r\n    /**\r\n   * @dev internal, checks for ownership\r\n   * @return bool if msg.sender is owner  \r\n   */\r\n    function isOwner() internal view returns (bool) { return msg.sender == owner; }\r\n\r\n    /**\r\n   * @dev Gets the total amount of tokens stored by the contract\r\n   * @return uint256 representing the total amount of tokens\r\n   */\r\n    function viewTotal() public view returns(uint256 _totalGenerated){\r\n        return totalGenerated;\r\n    }\r\n\r\n\r\n    /**\r\n   * @dev Gets the total amount of tokens owned by the sender\r\n   * @return uint[] with the id of each token owned\r\n   */\r\n    function viewYourTokens() public view  returns (uint[] _yourTokens){\r\n    return ownedTokens[msg.sender];\r\n    }\r\n    \r\n    /**\r\n   * @dev Gets the address of the contract, takes a token ID \r\n   * @return address of the contract for the token\r\n   */\r\n     function viewAddressArray(uint _id) view public returns (address _yourToken){\r\n    return tokensArray[_id];\r\n    }\r\n     /**\r\n   * @dev Sets the isOnline state variable, only owner\r\n   * @return state of isOnline\r\n   */\r\n     function toggleOnlineStatus() public pre_cond(isOwner())  returns (bool status){\r\n         isOnline = !isOnline;\r\n    return isOnline;\r\n    }\r\n    \r\n \r\n    \r\n}",
  "sourcePath": "c:\\Users\\Spader\\coding\\final-router\\final\\contracts\\ERC721Generator.sol",
  "compiler": {
    "name": "solc",
    "version": "0.4.24+commit.e67f0147.Emscripten.clang"
  },
  "schemaVersion": "2.0.1",
  "updatedAt": "2018-07-24T21:46:07.960Z"
}